{
    "_format": "hh-sol-artifact-1",
    "contractName": "TICKETMarket",
    "sourceName": "contracts/TICKETMarket.sol",
    "abi": [
        {
            "inputs": [],
            "stateMutability": "nonpayable",
            "type": "constructor"
        },
        {
            "anonymous": false,
            "inputs": [
                {
                    "indexed": true,
                    "internalType": "uint256",
                    "name": "itemId",
                    "type": "uint256"
                },
                {
                    "indexed": true,
                    "internalType": "address",
                    "name": "ticketContract",
                    "type": "address"
                },
                {
                    "indexed": true,
                    "internalType": "uint256",
                    "name": "tokenId",
                    "type": "uint256"
                },
                {
                    "indexed": false,
                    "internalType": "address",
                    "name": "seller",
                    "type": "address"
                },
                {
                    "indexed": false,
                    "internalType": "address",
                    "name": "owner",
                    "type": "address"
                },
                {
                    "indexed": false,
                    "internalType": "uint256",
                    "name": "price",
                    "type": "uint256"
                },
                {
                    "indexed": false,
                    "internalType": "bool",
                    "name": "sold",
                    "type": "bool"
                }
            ],
            "name": "MarketItemCreated",
            "type": "event"
        },
        {
            "inputs": [
                {
                    "internalType": "address",
                    "name": "ticketContract",
                    "type": "address"
                },
                {
                    "internalType": "uint256",
                    "name": "tokenId",
                    "type": "uint256"
                },
                {
                    "internalType": "uint256",
                    "name": "price",
                    "type": "uint256"
                }
            ],
            "name": "createMarketItem",
            "outputs": [],
            "stateMutability": "payable",
            "type": "function"
        },
        {
            "inputs": [
                {
                    "internalType": "address",
                    "name": "ticketContract",
                    "type": "address"
                },
                {
                    "internalType": "uint256",
                    "name": "itemId",
                    "type": "uint256"
                }
            ],
            "name": "createMarketSale",
            "outputs": [],
            "stateMutability": "payable",
            "type": "function"
        },
        {
            "inputs": [],
            "name": "fetchItemsCreated",
            "outputs": [
                {
                    "components": [
                        {
                            "internalType": "uint256",
                            "name": "itemId",
                            "type": "uint256"
                        },
                        {
                            "internalType": "address",
                            "name": "ticketContract",
                            "type": "address"
                        },
                        {
                            "internalType": "uint256",
                            "name": "tokenId",
                            "type": "uint256"
                        },
                        {
                            "internalType": "address payable",
                            "name": "seller",
                            "type": "address"
                        },
                        {
                            "internalType": "address payable",
                            "name": "owner",
                            "type": "address"
                        },
                        {
                            "internalType": "uint256",
                            "name": "price",
                            "type": "uint256"
                        },
                        {
                            "internalType": "bool",
                            "name": "sold",
                            "type": "bool"
                        }
                    ],
                    "internalType": "struct TICKETMarket.MarketItem[]",
                    "name": "",
                    "type": "tuple[]"
                }
            ],
            "stateMutability": "view",
            "type": "function"
        },
        {
            "inputs": [],
            "name": "fetchMarketItems",
            "outputs": [
                {
                    "components": [
                        {
                            "internalType": "uint256",
                            "name": "itemId",
                            "type": "uint256"
                        },
                        {
                            "internalType": "address",
                            "name": "ticketContract",
                            "type": "address"
                        },
                        {
                            "internalType": "uint256",
                            "name": "tokenId",
                            "type": "uint256"
                        },
                        {
                            "internalType": "address payable",
                            "name": "seller",
                            "type": "address"
                        },
                        {
                            "internalType": "address payable",
                            "name": "owner",
                            "type": "address"
                        },
                        {
                            "internalType": "uint256",
                            "name": "price",
                            "type": "uint256"
                        },
                        {
                            "internalType": "bool",
                            "name": "sold",
                            "type": "bool"
                        }
                    ],
                    "internalType": "struct TICKETMarket.MarketItem[]",
                    "name": "",
                    "type": "tuple[]"
                }
            ],
            "stateMutability": "view",
            "type": "function"
        },
        {
            "inputs": [],
            "name": "fetchMyTICKETS",
            "outputs": [
                {
                    "components": [
                        {
                            "internalType": "uint256",
                            "name": "itemId",
                            "type": "uint256"
                        },
                        {
                            "internalType": "address",
                            "name": "ticketContract",
                            "type": "address"
                        },
                        {
                            "internalType": "uint256",
                            "name": "tokenId",
                            "type": "uint256"
                        },
                        {
                            "internalType": "address payable",
                            "name": "seller",
                            "type": "address"
                        },
                        {
                            "internalType": "address payable",
                            "name": "owner",
                            "type": "address"
                        },
                        {
                            "internalType": "uint256",
                            "name": "price",
                            "type": "uint256"
                        },
                        {
                            "internalType": "bool",
                            "name": "sold",
                            "type": "bool"
                        }
                    ],
                    "internalType": "struct TICKETMarket.MarketItem[]",
                    "name": "",
                    "type": "tuple[]"
                }
            ],
            "stateMutability": "view",
            "type": "function"
        },
        {
            "inputs": [],
            "name": "getListingPrice",
            "outputs": [
                {
                    "internalType": "uint256",
                    "name": "",
                    "type": "uint256"
                }
            ],
            "stateMutability": "view",
            "type": "function"
        }
    ],
    "bytecode": "0x60806040526601c6bf5263400060045534801561001b57600080fd5b50600160008190555033600360006101000a81548173ffffffffffffffffffffffffffffffffffffffff021916908373ffffffffffffffffffffffffffffffffffffffff160217905550611961806100746000396000f3fe6080604052600436106100555760003560e01c80630f08efe01461005a57806312e855851461008557806358eb2df5146100b0578063c23b139e146100cc578063c55736b7146100e8578063f064c32e14610113575b600080fd5b34801561006657600080fd5b5061006f61013e565b60405161007c91906115aa565b60405180910390f35b34801561009157600080fd5b5061009a61046a565b6040516100a7919061164c565b60405180910390f35b6100ca60048036038101906100c591906112e6565b610474565b005b6100e660048036038101906100e191906112aa565b6107d8565b005b3480156100f457600080fd5b506100fd610a91565b60405161010a91906115aa565b60405180910390f35b34801561011f57600080fd5b50610128610e41565b60405161013591906115aa565b60405180910390f35b6060600061014c60016111db565b9050600061015a60026111db565b61016460016111db565b61016e9190611707565b90506000808267ffffffffffffffff8111156101b3577f4e487b7100000000000000000000000000000000000000000000000000000000600052604160045260246000fd5b6040519080825280602002602001820160405280156101ec57816020015b6101d96111ff565b8152602001906001900390816101d15790505b50905060005b8481101561045f57600073ffffffffffffffffffffffffffffffffffffffff166005600060018461022391906116b1565b815260200190815260200160002060040160009054906101000a900473ffffffffffffffffffffffffffffffffffffffff1673ffffffffffffffffffffffffffffffffffffffff16141561044c5760006005600060018461028491906116b1565b81526020019081526020016000206000015490506000600560008381526020019081526020016000209050806040518060e0016040529081600082015481526020016001820160009054906101000a900473ffffffffffffffffffffffffffffffffffffffff1673ffffffffffffffffffffffffffffffffffffffff1673ffffffffffffffffffffffffffffffffffffffff168152602001600282015481526020016003820160009054906101000a900473ffffffffffffffffffffffffffffffffffffffff1673ffffffffffffffffffffffffffffffffffffffff1673ffffffffffffffffffffffffffffffffffffffff1681526020016004820160009054906101000a900473ffffffffffffffffffffffffffffffffffffffff1673ffffffffffffffffffffffffffffffffffffffff1673ffffffffffffffffffffffffffffffffffffffff168152602001600582015481526020016006820160009054906101000a900460ff16151515158152505084868151811061042f577f4e487b7100000000000000000000000000000000000000000000000000000000600052603260045260246000fd5b602002602001018190525060018561044791906116b1565b945050505b808061045790611795565b9150506101f2565b508094505050505090565b6000600454905090565b600260005414156104ba576040517f08c379a00000000000000000000000000000000000000000000000000000000081526004016104b19061162c565b60405180910390fd5b600260008190555060008111610505576040517f08c379a00000000000000000000000000000000000000000000000000000000081526004016104fc906115cc565b60405180910390fd5b6004543414610549576040517f08c379a00000000000000000000000000000000000000000000000000000000081526004016105409061160c565b60405180910390fd5b61055360016111e9565b600061055f60016111db565b90506040518060e001604052808281526020018573ffffffffffffffffffffffffffffffffffffffff1681526020018481526020013373ffffffffffffffffffffffffffffffffffffffff168152602001600073ffffffffffffffffffffffffffffffffffffffff16815260200183815260200160001515815250600560008381526020019081526020016000206000820151816000015560208201518160010160006101000a81548173ffffffffffffffffffffffffffffffffffffffff021916908373ffffffffffffffffffffffffffffffffffffffff1602179055506040820151816002015560608201518160030160006101000a81548173ffffffffffffffffffffffffffffffffffffffff021916908373ffffffffffffffffffffffffffffffffffffffff16021790555060808201518160040160006101000a81548173ffffffffffffffffffffffffffffffffffffffff021916908373ffffffffffffffffffffffffffffffffffffffff16021790555060a0820151816005015560c08201518160060160006101000a81548160ff0219169083151502179055509050508373ffffffffffffffffffffffffffffffffffffffff166323b872dd3330866040518463ffffffff1660e01b81526004016107409392919061152e565b600060405180830381600087803b15801561075a57600080fd5b505af115801561076e573d6000803e3d6000fd5b50505050828473ffffffffffffffffffffffffffffffffffffffff16827f045dfa01dcba2b36aba1d3dc4a874f4b0c5d2fbeb8d2c4b34a7d88c8d8f929d13360008760006040516107c29493929190611565565b60405180910390a4506001600081905550505050565b6002600054141561081e576040517f08c379a00000000000000000000000000000000000000000000000000000000081526004016108159061162c565b60405180910390fd5b600260008190555060006005600083815260200190815260200160002060050154905060006005600084815260200190815260200160002060020154905081341461089e576040517f08c379a0000000000000000000000000000000000000000000000000000000008152600401610895906115ec565b60405180910390fd5b6005600084815260200190815260200160002060030160009054906101000a900473ffffffffffffffffffffffffffffffffffffffff1673ffffffffffffffffffffffffffffffffffffffff166108fc349081150290604051600060405180830381858888f1935050505015801561091a573d6000803e3d6000fd5b508373ffffffffffffffffffffffffffffffffffffffff166323b872dd3033846040518463ffffffff1660e01b81526004016109589392919061152e565b600060405180830381600087803b15801561097257600080fd5b505af1158015610986573d6000803e3d6000fd5b50505050336005600085815260200190815260200160002060040160006101000a81548173ffffffffffffffffffffffffffffffffffffffff021916908373ffffffffffffffffffffffffffffffffffffffff16021790555060016005600085815260200190815260200160002060060160006101000a81548160ff021916908315150217905550610a1860026111e9565b600360009054906101000a900473ffffffffffffffffffffffffffffffffffffffff1673ffffffffffffffffffffffffffffffffffffffff166108fc6004549081150290604051600060405180830381858888f19350505050158015610a82573d6000803e3d6000fd5b50505060016000819055505050565b60606000610a9f60016111db565b905060008060005b83811015610b48573373ffffffffffffffffffffffffffffffffffffffff1660056000600184610ad791906116b1565b815260200190815260200160002060040160009054906101000a900473ffffffffffffffffffffffffffffffffffffffff1673ffffffffffffffffffffffffffffffffffffffff161415610b3557600183610b3291906116b1565b92505b8080610b4090611795565b915050610aa7565b5060008267ffffffffffffffff811115610b8b577f4e487b7100000000000000000000000000000000000000000000000000000000600052604160045260246000fd5b604051908082528060200260200182016040528015610bc457816020015b610bb16111ff565b815260200190600190039081610ba95790505b50905060005b84811015610e36573373ffffffffffffffffffffffffffffffffffffffff1660056000600184610bfa91906116b1565b815260200190815260200160002060040160009054906101000a900473ffffffffffffffffffffffffffffffffffffffff1673ffffffffffffffffffffffffffffffffffffffff161415610e2357600060056000600184610c5b91906116b1565b81526020019081526020016000206000015490506000600560008381526020019081526020016000209050806040518060e0016040529081600082015481526020016001820160009054906101000a900473ffffffffffffffffffffffffffffffffffffffff1673ffffffffffffffffffffffffffffffffffffffff1673ffffffffffffffffffffffffffffffffffffffff168152602001600282015481526020016003820160009054906101000a900473ffffffffffffffffffffffffffffffffffffffff1673ffffffffffffffffffffffffffffffffffffffff1673ffffffffffffffffffffffffffffffffffffffff1681526020016004820160009054906101000a900473ffffffffffffffffffffffffffffffffffffffff1673ffffffffffffffffffffffffffffffffffffffff1673ffffffffffffffffffffffffffffffffffffffff168152602001600582015481526020016006820160009054906101000a900460ff161515151581525050848681518110610e06577f4e487b7100000000000000000000000000000000000000000000000000000000600052603260045260246000fd5b6020026020010181905250600185610e1e91906116b1565b945050505b8080610e2e90611795565b915050610bca565b508094505050505090565b60606000610e4f60016111db565b905060008060005b83811015610ef8573373ffffffffffffffffffffffffffffffffffffffff1660056000600184610e8791906116b1565b815260200190815260200160002060030160009054906101000a900473ffffffffffffffffffffffffffffffffffffffff1673ffffffffffffffffffffffffffffffffffffffff161415610ee557600183610ee291906116b1565b92505b8080610ef090611795565b915050610e57565b5060008267ffffffffffffffff811115610f3b577f4e487b7100000000000000000000000000000000000000000000000000000000600052604160045260246000fd5b604051908082528060200260200182016040528015610f7457816020015b610f616111ff565b815260200190600190039081610f595790505b50905060005b848110156111d0573373ffffffffffffffffffffffffffffffffffffffff1660056000600184610faa91906116b1565b815260200190815260200160002060030160009054906101000a900473ffffffffffffffffffffffffffffffffffffffff1673ffffffffffffffffffffffffffffffffffffffff1614156111bd57600060018261100791906116b1565b90506000600560008381526020019081526020016000209050806040518060e0016040529081600082015481526020016001820160009054906101000a900473ffffffffffffffffffffffffffffffffffffffff1673ffffffffffffffffffffffffffffffffffffffff1673ffffffffffffffffffffffffffffffffffffffff168152602001600282015481526020016003820160009054906101000a900473ffffffffffffffffffffffffffffffffffffffff1673ffffffffffffffffffffffffffffffffffffffff1673ffffffffffffffffffffffffffffffffffffffff1681526020016004820160009054906101000a900473ffffffffffffffffffffffffffffffffffffffff1673ffffffffffffffffffffffffffffffffffffffff1673ffffffffffffffffffffffffffffffffffffffff168152602001600582015481526020016006820160009054906101000a900460ff1615151515815250508486815181106111a0577f4e487b7100000000000000000000000000000000000000000000000000000000600052603260045260246000fd5b60200260200101819052506001856111b891906116b1565b945050505b80806111c890611795565b915050610f7a565b508094505050505090565b600081600001549050919050565b6001816000016000828254019250508190555050565b6040518060e0016040528060008152602001600073ffffffffffffffffffffffffffffffffffffffff16815260200160008152602001600073ffffffffffffffffffffffffffffffffffffffff168152602001600073ffffffffffffffffffffffffffffffffffffffff168152602001600081526020016000151581525090565b60008135905061128f816118fd565b92915050565b6000813590506112a481611914565b92915050565b600080604083850312156112bd57600080fd5b60006112cb85828601611280565b92505060206112dc85828601611295565b9150509250929050565b6000806000606084860312156112fb57600080fd5b600061130986828701611280565b935050602061131a86828701611295565b925050604061132b86828701611295565b9150509250925092565b60006113418383611482565b60e08301905092915050565b6113568161174d565b82525050565b6113658161173b565b82525050565b6113748161173b565b82525050565b600061138582611677565b61138f818561168f565b935061139a83611667565b8060005b838110156113cb5781516113b28882611335565b97506113bd83611682565b92505060018101905061139e565b5085935050505092915050565b6113e18161175f565b82525050565b6113f08161175f565b82525050565b60006114036019836116a0565b915061140e8261180d565b602082019050919050565b60006114266040836116a0565b915061143182611836565b604082019050919050565b60006114496024836116a0565b915061145482611885565b604082019050919050565b600061146c601f836116a0565b9150611477826118d4565b602082019050919050565b60e0820160008201516114986000850182611510565b5060208201516114ab602085018261135c565b5060408201516114be6040850182611510565b5060608201516114d1606085018261134d565b5060808201516114e4608085018261134d565b5060a08201516114f760a0850182611510565b5060c082015161150a60c08501826113d8565b50505050565b6115198161178b565b82525050565b6115288161178b565b82525050565b6000606082019050611543600083018661136b565b611550602083018561136b565b61155d604083018461151f565b949350505050565b600060808201905061157a600083018761136b565b611587602083018661136b565b611594604083018561151f565b6115a160608301846113e7565b95945050505050565b600060208201905081810360008301526115c4818461137a565b905092915050565b600060208201905081810360008301526115e5816113f6565b9050919050565b6000602082019050818103600083015261160581611419565b9050919050565b600060208201905081810360008301526116258161143c565b9050919050565b600060208201905081810360008301526116458161145f565b9050919050565b6000602082019050611661600083018461151f565b92915050565b6000819050602082019050919050565b600081519050919050565b6000602082019050919050565b600082825260208201905092915050565b600082825260208201905092915050565b60006116bc8261178b565b91506116c78361178b565b9250827fffffffffffffffffffffffffffffffffffffffffffffffffffffffffffffffff038211156116fc576116fb6117de565b5b828201905092915050565b60006117128261178b565b915061171d8361178b565b9250828210156117305761172f6117de565b5b828203905092915050565b60006117468261176b565b9050919050565b60006117588261176b565b9050919050565b60008115159050919050565b600073ffffffffffffffffffffffffffffffffffffffff82169050919050565b6000819050919050565b60006117a08261178b565b91507fffffffffffffffffffffffffffffffffffffffffffffffffffffffffffffffff8214156117d3576117d26117de565b5b600182019050919050565b7f4e487b7100000000000000000000000000000000000000000000000000000000600052601160045260246000fd5b7f5072696365206d757374206265206d6f7265207468616e203000000000000000600082015250565b7f506c65617365207375626d6974207468652061736b696e67207072696365206960008201527f6e206f7264657220746f20636f6d706c65746520746865207075726368617365602082015250565b7f5072696365206d75737420626520657175616c20746f206c697374696e67207060008201527f7269636500000000000000000000000000000000000000000000000000000000602082015250565b7f5265656e7472616e637947756172643a207265656e7472616e742063616c6c00600082015250565b6119068161173b565b811461191157600080fd5b50565b61191d8161178b565b811461192857600080fd5b5056fea2646970667358221220c5186edba70bad684d82500dd7343cf1f6405c19af21e99b0eb8c6c28d84193f64736f6c63430008040033",
    "linkReferences": {},
    "deployedLinkReferences": {}
}